:100000000C942A000C9447000C9447000C94470071
:100010000C9447000C9447000C9447000C94470044
:100020000C9447000C9447000C9447000C94270153
:100030000C9447000C9447000C9447000C94470024
:100040000C9447000C9447000C9447000C94470014
:100050000C94470011241FBECFE5D4E0DEBFCDBF16
:1000600011E0A0E6B0E0E8E6F9E002C005900D92EC
:10007000A831B107D9F721E0A8E1B1E001C01D9294
:10008000AE31B207E1F70E94CB000C94B2040C949D
:100090000000CF93C82F8A3019F48DE00E944900E8
:1000A0005D9BFECFCCB9CF9108958BB3806F8BBB96
:1000B0008AB38F708ABBDA9ADA9A29B3DA98DA9A15
:1000C000DA9A99B3DA98207F892F82958F70822BE4
:1000D00008952BB32F70982F907F922B9BBBDA9AA9
:1000E000DA9830E1839FC0011124822B8BBBDA9A0E
:1000F000DA980895CF93DF931F92CDB7DEB7D898E3
:10010000D99A0E945500898389818823C4F3D9989C
:100110008FEF8ABB0F90DF91CF910895D89A0E94FC
:1001200069000E947A0008958FEF8ABB8ABBD89835
:10013000D998DA98DA9ADD9ADA980E947A0088E2F9
:100140000E9469000E947A00D8988EE00E9469009F
:100150000E947A00D89886E00E9469000E947A0086
:100160000895D89882E00E9469000E947A0008955C
:10017000D89890E4899F600D1124862F815C0E949D
:1001800069000E947A000895D89881E00E94690071
:100190000E947A00089510BC83E389B91BB886E8F1
:1001A00080BD88E98AB978940E9494000E94C400B6
:1001B0008CE790E09F938F930E94A4012EE630E09D
:1001C0004EE050E061E070E085E890E00E94700150
:1001D00061E082E00E94B80008E111E08EE690E064
:1001E000F8019383828380E28F938DE08F9384E97B
:1001F00090E09F938F930E94A4010E94B10081EA36
:1002000090E09F938F930E94A401C0E6D0E0F80194
:10021000D383C2838FEA90E00E94BA0186E18F9374
:100220008EE28F938CEB90E09F938F93DF93CF932D
:100230000E945E0185EE90E00E94BA01EDB7FEB724
:100240003E960FB6F894FEBF0FBEEDBFFFCF1F92D4
:100250000F920FB60F9211242F933F934F935F93FA
:100260006F937F938F939F93AF93BF93EF93FF937E
:100270008CB187E08F9380ED8F938AE091E09F931C
:100280008F9380E690E09F938F930E945E010F9082
:100290000F900F900F900F900F90FF91EF91BF91E3
:1002A000AF919F918F917F916F915F914F913F910E
:1002B0002F910F900FBE0F901F901895A0E0B0E007
:1002C000E4E6F1E00C948B04AE01475F5F4F6F8171
:1002D00078858D819E810E94EA01E2E00C94A7045A
:1002E000A0E0B0E0E6E7F1E00C9481045B014A0194
:1002F0007901D90113962C9121FF1DC0C0E0D0E0F7
:10030000C815D905D9F08C016C01CA0CDB1CC801D9
:100310000C151D0571F00F5F1F4FD7011896ED9159
:10032000FC911997B701DC018C910995892B79F320
:1003300005C02196E5CF80E090E001C0CE01CDB7A9
:10034000DEB7ECE00C949D04A0E0B0E0EAEAF1E056
:100350000C948B04AE014B5F5F4FFA016191719178
:10036000AF0180911A0190911B010E94EA01E2E025
:100370000C94A7040F931F93CF93DF93E0911A017E
:10038000F0911B01238121FF1BC08C01D0E0C0E054
:10039000F80181918F0160911A0170911B01DB01BD
:1003A0001896ED91FC911997882331F00995892BC6
:1003B00079F3DFEFCFEFECCF8AE00995892B19F0C5
:1003C0008FEF9FEF02C08D2F9C2FDF91CF911F9158
:1003D0000F910895ABE0B0E0E0EFF1E00C947B0406
:1003E0006C017B018A01FC0117821682838181FFE7
:1003F000CCC1CE0101963C01F6019381F70193FD3A
:10040000859193FF81917F01882309F4BAC18532D8
:1004100039F493FD859193FF81917F01853229F411
:10042000B60190E00E94E103E7CF912C212C312C02
:10043000FFE1F315D8F08B3279F038F4803279F09F
:100440008332A1F4232D20611DC08D3261F08033F1
:1004500069F4232D216016C0832D8260382EE32D90
:10046000E4603E2E2AC0F32DF8601DC037FC2DC07D
:1004700020ED280F2A3040F08E32B9F436FC81C1CD
:10048000232D2064322E19C036FE06C08AE0989EC5
:10049000200D1124922E11C0EAE02E9E200D112471
:1004A000222EF32DF0623F2E08C08C3621F4832DCE
:1004B0008068382E02C0883641F4F70193FD85919B
:1004C00093FF81917F018111B3CF982F9F7D955428
:1004D000933028F40C5F1F4F9FE399830DC0833640
:1004E00031F0833771F0833509F059C021C0F8012C
:1004F000808189830E5F1F4F88248394912C530140
:1005000013C02801F2E04F0E511CF801A080B18009
:1005100036FE03C0692D70E002C06FEF7FEFC501AA
:100520000E94D6034C018201F32DFF773F2E16C0A7
:10053000280122E0420E511CF801A080B18036FE55
:1005400003C0692D70E002C06FEF7FEFC5010E940C
:10055000CB034C01F32DF0683F2E820133FC1BC00E
:10056000822D90E088169906B0F4B60180E290E002
:100570000E94E1032A94F4CFF50137FC859137FE00
:1005800081915F01B60190E00E94E10321102A945D
:1005900021E0821A91088114910471F7E8C0843631
:1005A00011F0893641F5F80137FE07C0608171818D
:1005B000828193810C5F1F4F08C060817181072E7B
:1005C000000C880B990B0E5F1F4FF32DFF763F2E0B
:1005D00097FF09C090958095709561957F4F8F4FDB
:1005E0009F4FF0683F2E2AE030E0A3010E941D04D7
:1005F000882E861845C0853731F4232D2F7EB22EE4
:100600002AE030E025C0932D997FB92E8F36C1F0B6
:1006100018F4883579F0B5C0803719F0883721F0A3
:10062000B0C0E92FE061BE2EB4FE0DC0FB2DF4601A
:10063000BF2E09C034FE0AC0292F2660B22E06C084
:1006400028E030E005C020E130E002C020E132E0E7
:10065000F801B7FE07C060817181828193810C5FD0
:100660001F4F06C06081718180E090E00E5F1F4FD8
:10067000A3010E941D04882E8618FB2DFF773F2EB4
:1006800036FE0DC0232D2E7FA22E891458F434FE81
:100690000BC032FC09C0832D8E7EA82E05C0B82C5D
:1006A000A32C03C0B82C01C0B92CA4FE0FC0FE01BE
:1006B000E80DF11D8081803321F49A2D997EA92EB9
:1006C00009C0A2FE06C0B394B39404C08A2D8678F4
:1006D00009F0B394A3FC11C0A0FE06C0B21488F4C4
:1006E000280C922C9B180EC0B21460F4B60180E264
:1006F00090E00E94E103B394F7CFB21418F42B18E2
:1007000002C0982C212CA4FE10C0B60180E390E01A
:100710000E94E103A2FE17C0A1FC03C088E790E09D
:1007200002C088E590E0B6010CC08A2D867859F0A9
:10073000A1FE02C08BE201C080E2A7FC8DE2B601FF
:1007400090E00E94E103891438F4B60180E390E060
:100750000E94E1039A94F7CF8A94F301E80DF11D0A
:100760008081B60190E00E94E1038110F5CF222044
:1007700009F442CEB60180E290E00E94E1032A949F
:10078000F6CFF6018681978102C08FEF9FEF2B96FF
:10079000E2E10C949704FC01059061507040011057
:1007A000D8F7809590958E0F9F1F0895FC0161509A
:1007B000704001900110D8F7809590958E0F9F1F83
:1007C00008950F931F93CF93DF93FB01238121FDA6
:1007D00003C08FEF9FEF2CC022FF16C046815781C8
:1007E000248135814217530744F4A081B1819D01D2
:1007F0002F5F3F4F318320838C93268137812F5F7A
:100800003F4F3783268314C08B01EC01FB0100842A
:10081000F185E02D0995892BE1F6D80116968D9189
:100820009C911797019617969C938E931697CE01DD
:10083000DF91CF911F910F910895FA01AA272830D7
:1008400051F1203181F1E8946F936E7F6E5F7F4F9D
:100850008F4F9F4FAF4FB1E03ED0B4E03CD0670F19
:10086000781F891F9A1FA11D680F791F8A1F911D6C
:10087000A11D6A0F711D811D911DA11D20D009F4BC
:1008800068943F912AE0269F11243019305D3193FE
:10089000DEF6CF010895462F4770405D4193B3E0E7
:1008A0000FD0C9F7F6CF462F4F70405D4A3318F08E
:1008B000495D31FD4052419302D0A9F7EACFB4E03F
:1008C000A6959795879577956795BA95C9F70097F7
:1008D0006105710508959B01AC010A2E0694579598
:1008E000479537952795BA95C9F7620F731F841FEF
:1008F000951FA01D08952F923F924F925F926F9285
:100900007F928F929F92AF92BF92CF92DF92EF929F
:10091000FF920F931F93CF93DF93CDB7DEB7CA1B20
:10092000DB0B0FB6F894DEBF0FBECDBF09942A884B
:10093000398848885F846E847D848C849B84AA84F3
:10094000B984C884DF80EE80FD800C811B81AA8180
:10095000B981CE0FD11D0FB6F894DEBF0FBECDBF4B
:08096000ED010895F894FFCFAA
:100968000000000200000000490000000000000034
:100978000002000000008E0000000000496E206C9C
:10098800616E2031007777772E686F636176722EFB
:10099800636F6D00496E206C616E20343A202569C2
:1009A8000020567520447579204B68616E680048B0
:1009B800656C6C6F20776F726C642100446F6E6792
:1009C800206E61792064756F6320696E2062616EA4
:1009D800672068616D2022667072696E7466222CC9
:1009E8002025690A00486179206E686170203120ED
:1009F8007068696D206465206B69656D207472612B
:100A0800206D61204153434949004D6120415343C2
:080A180049493A2025640A0057
:00000001FF
